{
  "contractName": "Activities",
  "abi": [
    {
      "constant": true,
      "inputs": [
        {
          "name": "",
          "type": "uint256"
        }
      ],
      "name": "workers",
      "outputs": [
        {
          "name": "",
          "type": "address"
        }
      ],
      "payable": false,
      "stateMutability": "view",
      "type": "function"
    },
    {
      "constant": false,
      "inputs": [
        {
          "name": "workerId",
          "type": "uint256"
        },
        {
          "components": [
            {
              "name": "dateBegin",
              "type": "uint256"
            },
            {
              "name": "dateEnd",
              "type": "uint256"
            },
            {
              "name": "description",
              "type": "string"
            },
            {
              "components": [
                {
                  "components": [
                    {
                      "name": "power",
                      "type": "uint256"
                    },
                    {
                      "name": "freq",
                      "type": "uint256"
                    }
                  ],
                  "name": "us",
                  "type": "tuple"
                },
                {
                  "components": [
                    {
                      "name": "diam",
                      "type": "uint256"
                    },
                    {
                      "name": "humid",
                      "type": "uint256"
                    }
                  ],
                  "name": "c",
                  "type": "tuple"
                },
                {
                  "components": [
                    {
                      "name": "qt",
                      "type": "uint256"
                    },
                    {
                      "name": "vent_level",
                      "type": "uint256"
                    }
                  ],
                  "name": "ae",
                  "type": "tuple"
                }
              ],
              "name": "at",
              "type": "tuple"
            }
          ],
          "name": "a",
          "type": "tuple"
        }
      ],
      "name": "activitiesAdd",
      "outputs": [
        {
          "name": "",
          "type": "uint256"
        },
        {
          "components": [
            {
              "name": "dateBegin",
              "type": "uint256"
            },
            {
              "name": "dateEnd",
              "type": "uint256"
            },
            {
              "name": "description",
              "type": "string"
            },
            {
              "components": [
                {
                  "components": [
                    {
                      "name": "power",
                      "type": "uint256"
                    },
                    {
                      "name": "freq",
                      "type": "uint256"
                    }
                  ],
                  "name": "us",
                  "type": "tuple"
                },
                {
                  "components": [
                    {
                      "name": "diam",
                      "type": "uint256"
                    },
                    {
                      "name": "humid",
                      "type": "uint256"
                    }
                  ],
                  "name": "c",
                  "type": "tuple"
                },
                {
                  "components": [
                    {
                      "name": "qt",
                      "type": "uint256"
                    },
                    {
                      "name": "vent_level",
                      "type": "uint256"
                    }
                  ],
                  "name": "ae",
                  "type": "tuple"
                }
              ],
              "name": "at",
              "type": "tuple"
            }
          ],
          "name": "",
          "type": "tuple"
        }
      ],
      "payable": false,
      "stateMutability": "nonpayable",
      "type": "function"
    },
    {
      "constant": false,
      "inputs": [
        {
          "name": "workerId",
          "type": "uint256"
        },
        {
          "components": [
            {
              "name": "dateBegin",
              "type": "uint256"
            },
            {
              "name": "dateEnd",
              "type": "uint256"
            },
            {
              "name": "description",
              "type": "string"
            },
            {
              "components": [
                {
                  "components": [
                    {
                      "name": "power",
                      "type": "uint256"
                    },
                    {
                      "name": "freq",
                      "type": "uint256"
                    }
                  ],
                  "name": "us",
                  "type": "tuple"
                },
                {
                  "components": [
                    {
                      "name": "diam",
                      "type": "uint256"
                    },
                    {
                      "name": "humid",
                      "type": "uint256"
                    }
                  ],
                  "name": "c",
                  "type": "tuple"
                },
                {
                  "components": [
                    {
                      "name": "qt",
                      "type": "uint256"
                    },
                    {
                      "name": "vent_level",
                      "type": "uint256"
                    }
                  ],
                  "name": "ae",
                  "type": "tuple"
                }
              ],
              "name": "at",
              "type": "tuple"
            }
          ],
          "name": "a",
          "type": "tuple"
        }
      ],
      "name": "activitiesEdit",
      "outputs": [
        {
          "name": "",
          "type": "uint256"
        },
        {
          "components": [
            {
              "name": "dateBegin",
              "type": "uint256"
            },
            {
              "name": "dateEnd",
              "type": "uint256"
            },
            {
              "name": "description",
              "type": "string"
            },
            {
              "components": [
                {
                  "components": [
                    {
                      "name": "power",
                      "type": "uint256"
                    },
                    {
                      "name": "freq",
                      "type": "uint256"
                    }
                  ],
                  "name": "us",
                  "type": "tuple"
                },
                {
                  "components": [
                    {
                      "name": "diam",
                      "type": "uint256"
                    },
                    {
                      "name": "humid",
                      "type": "uint256"
                    }
                  ],
                  "name": "c",
                  "type": "tuple"
                },
                {
                  "components": [
                    {
                      "name": "qt",
                      "type": "uint256"
                    },
                    {
                      "name": "vent_level",
                      "type": "uint256"
                    }
                  ],
                  "name": "ae",
                  "type": "tuple"
                }
              ],
              "name": "at",
              "type": "tuple"
            }
          ],
          "name": "",
          "type": "tuple"
        }
      ],
      "payable": false,
      "stateMutability": "nonpayable",
      "type": "function"
    }
  ],
  "bytecode": "0x608060405234801561001057600080fd5b506108b1806100206000396000f300608060405260043610610057576000357c0100000000000000000000000000000000000000000000000000000000900463ffffffff16806309229a4e1461005c5780633694dd7e1461009a578063f1a22dc2146100d8575b600080fd5b34801561006857600080fd5b50610083600480360361007e9190810190610566565b610115565b60405161009192919061075c565b60405180910390f35b3480156100a657600080fd5b506100c160048036036100bc9190810190610566565b610198565b6040516100cf92919061075c565b60405180910390f35b3480156100e457600080fd5b506100ff60048036036100fa919081019061053d565b61021b565b60405161010c9190610741565b60405180910390f35b600061011f610250565b600084101580156101315750600f8411155b151561013c57600080fd5b33600085600f8110151561014c57fe5b0160006101000a81548173ffffffffffffffffffffffffffffffffffffffff021916908373ffffffffffffffffffffffffffffffffffffffff1602179055508383915091509250929050565b60006101a2610250565b600084101580156101b45750600f8411155b15156101bf57600080fd5b33600085600f811015156101cf57fe5b0160006101000a81548173ffffffffffffffffffffffffffffffffffffffff021916908373ffffffffffffffffffffffffffffffffffffffff1602179055508383915091509250929050565b600081600f8110151561022a57fe5b016000915054906101000a900473ffffffffffffffffffffffffffffffffffffffff1681565b6101206040519081016040528060008152602001600081526020016060815260200161027a610280565b81525090565b60c0604051908101604052806102946102b4565b81526020016102a16102ce565b81526020016102ae6102e8565b81525090565b604080519081016040528060008152602001600081525090565b604080519081016040528060008152602001600081525090565b604080519081016040528060008152602001600081525090565b600082601f830112151561031557600080fd5b8135610328610323826107b9565b61078c565b9150808252602083016020830185838301111561034457600080fd5b61034f838284610824565b50505092915050565b6000610120828403121561036b57600080fd5b610375608061078c565b9050600061038584828501610529565b600083015250602061039984828501610529565b602083015250604082013567ffffffffffffffff8111156103b957600080fd5b6103c584828501610302565b60408301525060606103d9848285016103e5565b60608301525092915050565b600060c082840312156103f757600080fd5b610401606061078c565b90506000610411848285016104dd565b600083015250604061042584828501610491565b602083015250608061043984828501610445565b60408301525092915050565b60006040828403121561045757600080fd5b610461604061078c565b9050600061047184828501610529565b600083015250602061048584828501610529565b60208301525092915050565b6000604082840312156104a357600080fd5b6104ad604061078c565b905060006104bd84828501610529565b60008301525060206104d184828501610529565b60208301525092915050565b6000604082840312156104ef57600080fd5b6104f9604061078c565b9050600061050984828501610529565b600083015250602061051d84828501610529565b60208301525092915050565b6000610535823561081a565b905092915050565b60006020828403121561054f57600080fd5b600061055d84828501610529565b91505092915050565b6000806040838503121561057957600080fd5b600061058785828601610529565b925050602083013567ffffffffffffffff8111156105a457600080fd5b6105b085828601610358565b9150509250929050565b6105c3816107f0565b82525050565b60006105d4826107e5565b8084526105e8816020860160208601610833565b6105f181610866565b602085010191505092915050565b6000610120830160008301516106186000860182610732565b50602083015161062b6020860182610732565b506040830151848203604086015261064382826105c9565b91505060608301516106586060860182610663565b508091505092915050565b60c0820160008201516106796000850182610703565b50602082015161068c60408501826106d4565b50604082015161069f60808501826106a5565b50505050565b6040820160008201516106bb6000850182610732565b5060208201516106ce6020850182610732565b50505050565b6040820160008201516106ea6000850182610732565b5060208201516106fd6020850182610732565b50505050565b6040820160008201516107196000850182610732565b50602082015161072c6020850182610732565b50505050565b61073b81610810565b82525050565b600060208201905061075660008301846105ba565b92915050565b60006040820190506107716000830185610732565b818103602083015261078381846105ff565b90509392505050565b6000604051905081810181811067ffffffffffffffff821117156107af57600080fd5b8060405250919050565b600067ffffffffffffffff8211156107d057600080fd5b601f19601f8301169050602081019050919050565b600081519050919050565b600073ffffffffffffffffffffffffffffffffffffffff82169050919050565b6000819050919050565b6000819050919050565b82818337600083830152505050565b60005b83811015610851578082015181840152602081019050610836565b83811115610860576000848401525b50505050565b6000601f19601f83011690509190505600a265627a7a723058202e41fb4828d3f93004bffc1595d1d8c52cc08d926c4168852402e31e9b27c9736c6578706572696d656e74616cf50037",
  "source": "pragma solidity ^0.4.0;\npragma experimental ABIEncoderV2;\n\ncontract Activities {\n// Contract to Add and Edit Physiotherapy Activities\n    uint constant n = 15; // n - to define the number of workers\n    address[n] public workers; // workers - array of 'n' addresses for workers\n    struct ultra_sound{\n        uint power;\n        uint freq;\n    }\n    struct currents{\n        uint diam;\n        uint humid;\n    }\n    struct aerosols{\n        uint qt;\n        uint vent_level;\n    }\n    struct activity_type{\n        ultra_sound us;\n        currents c;\n        aerosols ae;\n    }\n    struct activity { // Activity Struct\n        uint dateBegin;\n        uint dateEnd;\n        string description;\n        activity_type at;\n    }\n    // Add an Activity\n    function activitiesAdd(uint256 workerId, activity a) public returns (uint256, activity){\n        require(workerId >= 0 && workerId <= n);\n\n        workers[workerId] = msg.sender;\n\n        return (workerId, a);\n    }\n    // Edit an Activity\n    function activitiesEdit(uint256 workerId, activity a) public returns (uint256, activity){\n        require(workerId >= 0 && workerId <= n);\n\n        workers[workerId] = msg.sender;\n\n        return (workerId, a);\n    }\n}\n",
  "sourcePath": "/mnt/UbiWhere-Test/contracts/Activities.sol",
  "compiler": {
    "name": "solc",
    "version": "0.4.26+commit.4563c3fc.Emscripten.clang"
  },
  "schemaVersion": "3.2.0",
  "updatedAt": "2020-06-04T06:21:18.539Z",
  "devdoc": {
    "methods": {}
  },
  "userdoc": {
    "methods": {}
  }
}