{
  "contractName": "Workers",
  "abi": [
    {
      "constant": false,
      "inputs": [],
      "name": "manageWorkers",
      "outputs": [],
      "payable": false,
      "stateMutability": "nonpayable",
      "type": "function"
    }
  ],
  "bytecode": "0x6080604052348015600f57600080fd5b5060868061001e6000396000f300608060405260043610603f576000357c0100000000000000000000000000000000000000000000000000000000900463ffffffff168063a83dbd38146044575b600080fd5b348015604f57600080fd5b5060566058565b005b5600a165627a7a7230582010bd04847eed6e3728c4596a9dd4fa3b03d4c81769df2468eeb6e14c5d37b3290029",
  "source": "pragma solidity ^0.4.0;\n\ncontract Workers {\n    function manageWorkers(){\n\n    }\n}\n",
  "sourcePath": "/mnt/UbiWhere-Test/contracts/Workers.sol",
  "compiler": {
    "name": "solc",
    "version": "0.4.26+commit.4563c3fc.Emscripten.clang"
  },
  "schemaVersion": "3.2.0",
  "updatedAt": "2020-06-04T06:21:18.542Z",
  "devdoc": {
    "methods": {}
  },
  "userdoc": {
    "methods": {}
  }
}